{
  "_format": "hh-sol-artifact-1",
  "contractName": "RewardRouterV2",
  "sourceName": "contracts/staking/RewardRouterV2.sol",
  "abi": [
    {
      "anonymous": false,
      "inputs": [
        {
          "indexed": false,
          "internalType": "address",
          "name": "account",
          "type": "address"
        },
        {
          "indexed": false,
          "internalType": "uint256",
          "name": "amount",
          "type": "uint256"
        }
      ],
      "name": "StakeNlp",
      "type": "event"
    },
    {
      "anonymous": false,
      "inputs": [
        {
          "indexed": false,
          "internalType": "address",
          "name": "account",
          "type": "address"
        },
        {
          "indexed": false,
          "internalType": "address",
          "name": "token",
          "type": "address"
        },
        {
          "indexed": false,
          "internalType": "uint256",
          "name": "amount",
          "type": "uint256"
        }
      ],
      "name": "StakeNova",
      "type": "event"
    },
    {
      "anonymous": false,
      "inputs": [
        {
          "indexed": false,
          "internalType": "address",
          "name": "account",
          "type": "address"
        },
        {
          "indexed": false,
          "internalType": "uint256",
          "name": "amount",
          "type": "uint256"
        }
      ],
      "name": "UnstakeNlp",
      "type": "event"
    },
    {
      "anonymous": false,
      "inputs": [
        {
          "indexed": false,
          "internalType": "address",
          "name": "account",
          "type": "address"
        },
        {
          "indexed": false,
          "internalType": "address",
          "name": "token",
          "type": "address"
        },
        {
          "indexed": false,
          "internalType": "uint256",
          "name": "amount",
          "type": "uint256"
        }
      ],
      "name": "UnstakeNova",
      "type": "event"
    },
    {
      "inputs": [
        {
          "internalType": "address",
          "name": "_sender",
          "type": "address"
        }
      ],
      "name": "acceptTransfer",
      "outputs": [],
      "stateMutability": "nonpayable",
      "type": "function"
    },
    {
      "inputs": [
        {
          "internalType": "address[]",
          "name": "_accounts",
          "type": "address[]"
        }
      ],
      "name": "batchCompoundForAccounts",
      "outputs": [],
      "stateMutability": "nonpayable",
      "type": "function"
    },
    {
      "inputs": [
        {
          "internalType": "address[]",
          "name": "_accounts",
          "type": "address[]"
        },
        {
          "internalType": "uint256[]",
          "name": "_amounts",
          "type": "uint256[]"
        }
      ],
      "name": "batchStakeNovaForAccount",
      "outputs": [],
      "stateMutability": "nonpayable",
      "type": "function"
    },
    {
      "inputs": [],
      "name": "bnNova",
      "outputs": [
        {
          "internalType": "address",
          "name": "",
          "type": "address"
        }
      ],
      "stateMutability": "view",
      "type": "function"
    },
    {
      "inputs": [],
      "name": "bonusNovaTracker",
      "outputs": [
        {
          "internalType": "address",
          "name": "",
          "type": "address"
        }
      ],
      "stateMutability": "view",
      "type": "function"
    },
    {
      "inputs": [],
      "name": "claim",
      "outputs": [],
      "stateMutability": "nonpayable",
      "type": "function"
    },
    {
      "inputs": [],
      "name": "claimEsNova",
      "outputs": [],
      "stateMutability": "nonpayable",
      "type": "function"
    },
    {
      "inputs": [],
      "name": "claimFees",
      "outputs": [],
      "stateMutability": "nonpayable",
      "type": "function"
    },
    {
      "inputs": [],
      "name": "compound",
      "outputs": [],
      "stateMutability": "nonpayable",
      "type": "function"
    },
    {
      "inputs": [
        {
          "internalType": "address",
          "name": "_account",
          "type": "address"
        }
      ],
      "name": "compoundForAccount",
      "outputs": [],
      "stateMutability": "nonpayable",
      "type": "function"
    },
    {
      "inputs": [],
      "name": "esNova",
      "outputs": [
        {
          "internalType": "address",
          "name": "",
          "type": "address"
        }
      ],
      "stateMutability": "view",
      "type": "function"
    },
    {
      "inputs": [],
      "name": "feeNlpTracker",
      "outputs": [
        {
          "internalType": "address",
          "name": "",
          "type": "address"
        }
      ],
      "stateMutability": "view",
      "type": "function"
    },
    {
      "inputs": [],
      "name": "feeNovaTracker",
      "outputs": [
        {
          "internalType": "address",
          "name": "",
          "type": "address"
        }
      ],
      "stateMutability": "view",
      "type": "function"
    },
    {
      "inputs": [],
      "name": "gov",
      "outputs": [
        {
          "internalType": "address",
          "name": "",
          "type": "address"
        }
      ],
      "stateMutability": "view",
      "type": "function"
    },
    {
      "inputs": [
        {
          "internalType": "bool",
          "name": "_shouldClaimNova",
          "type": "bool"
        },
        {
          "internalType": "bool",
          "name": "_shouldStakeNova",
          "type": "bool"
        },
        {
          "internalType": "bool",
          "name": "_shouldClaimEsNova",
          "type": "bool"
        },
        {
          "internalType": "bool",
          "name": "_shouldStakeEsNova",
          "type": "bool"
        },
        {
          "internalType": "bool",
          "name": "_shouldStakeMultiplierPoints",
          "type": "bool"
        },
        {
          "internalType": "bool",
          "name": "_shouldClaimWeth",
          "type": "bool"
        },
        {
          "internalType": "bool",
          "name": "_shouldConvertWethToEth",
          "type": "bool"
        }
      ],
      "name": "handleRewards",
      "outputs": [],
      "stateMutability": "nonpayable",
      "type": "function"
    },
    {
      "inputs": [
        {
          "internalType": "address",
          "name": "_weth",
          "type": "address"
        },
        {
          "internalType": "address",
          "name": "_nova",
          "type": "address"
        },
        {
          "internalType": "address",
          "name": "_esNova",
          "type": "address"
        },
        {
          "internalType": "address",
          "name": "_bnNova",
          "type": "address"
        },
        {
          "internalType": "address",
          "name": "_nlp",
          "type": "address"
        },
        {
          "internalType": "address",
          "name": "_stakedNovaTracker",
          "type": "address"
        },
        {
          "internalType": "address",
          "name": "_bonusNovaTracker",
          "type": "address"
        },
        {
          "internalType": "address",
          "name": "_feeNovaTracker",
          "type": "address"
        },
        {
          "internalType": "address",
          "name": "_feeNlpTracker",
          "type": "address"
        },
        {
          "internalType": "address",
          "name": "_stakedNlpTracker",
          "type": "address"
        },
        {
          "internalType": "address",
          "name": "_nlpManager",
          "type": "address"
        },
        {
          "internalType": "address",
          "name": "_novaVester",
          "type": "address"
        },
        {
          "internalType": "address",
          "name": "_nlpVester",
          "type": "address"
        }
      ],
      "name": "initialize",
      "outputs": [],
      "stateMutability": "nonpayable",
      "type": "function"
    },
    {
      "inputs": [],
      "name": "isInitialized",
      "outputs": [
        {
          "internalType": "bool",
          "name": "",
          "type": "bool"
        }
      ],
      "stateMutability": "view",
      "type": "function"
    },
    {
      "inputs": [
        {
          "internalType": "address",
          "name": "_token",
          "type": "address"
        },
        {
          "internalType": "uint256",
          "name": "_amount",
          "type": "uint256"
        },
        {
          "internalType": "uint256",
          "name": "_minUsdg",
          "type": "uint256"
        },
        {
          "internalType": "uint256",
          "name": "_minNlp",
          "type": "uint256"
        }
      ],
      "name": "mintAndStakeNlp",
      "outputs": [
        {
          "internalType": "uint256",
          "name": "",
          "type": "uint256"
        }
      ],
      "stateMutability": "nonpayable",
      "type": "function"
    },
    {
      "inputs": [
        {
          "internalType": "uint256",
          "name": "_minUsdg",
          "type": "uint256"
        },
        {
          "internalType": "uint256",
          "name": "_minNlp",
          "type": "uint256"
        }
      ],
      "name": "mintAndStakeNlpETH",
      "outputs": [
        {
          "internalType": "uint256",
          "name": "",
          "type": "uint256"
        }
      ],
      "stateMutability": "payable",
      "type": "function"
    },
    {
      "inputs": [],
      "name": "nlp",
      "outputs": [
        {
          "internalType": "address",
          "name": "",
          "type": "address"
        }
      ],
      "stateMutability": "view",
      "type": "function"
    },
    {
      "inputs": [],
      "name": "nlpManager",
      "outputs": [
        {
          "internalType": "address",
          "name": "",
          "type": "address"
        }
      ],
      "stateMutability": "view",
      "type": "function"
    },
    {
      "inputs": [],
      "name": "nlpVester",
      "outputs": [
        {
          "internalType": "address",
          "name": "",
          "type": "address"
        }
      ],
      "stateMutability": "view",
      "type": "function"
    },
    {
      "inputs": [],
      "name": "nova",
      "outputs": [
        {
          "internalType": "address",
          "name": "",
          "type": "address"
        }
      ],
      "stateMutability": "view",
      "type": "function"
    },
    {
      "inputs": [],
      "name": "novaVester",
      "outputs": [
        {
          "internalType": "address",
          "name": "",
          "type": "address"
        }
      ],
      "stateMutability": "view",
      "type": "function"
    },
    {
      "inputs": [
        {
          "internalType": "address",
          "name": "",
          "type": "address"
        }
      ],
      "name": "pendingReceivers",
      "outputs": [
        {
          "internalType": "address",
          "name": "",
          "type": "address"
        }
      ],
      "stateMutability": "view",
      "type": "function"
    },
    {
      "inputs": [
        {
          "internalType": "address",
          "name": "_gov",
          "type": "address"
        }
      ],
      "name": "setGov",
      "outputs": [],
      "stateMutability": "nonpayable",
      "type": "function"
    },
    {
      "inputs": [
        {
          "internalType": "address",
          "name": "_receiver",
          "type": "address"
        }
      ],
      "name": "signalTransfer",
      "outputs": [],
      "stateMutability": "nonpayable",
      "type": "function"
    },
    {
      "inputs": [
        {
          "internalType": "uint256",
          "name": "_amount",
          "type": "uint256"
        }
      ],
      "name": "stakeEsNova",
      "outputs": [],
      "stateMutability": "nonpayable",
      "type": "function"
    },
    {
      "inputs": [
        {
          "internalType": "uint256",
          "name": "_amount",
          "type": "uint256"
        }
      ],
      "name": "stakeNova",
      "outputs": [],
      "stateMutability": "nonpayable",
      "type": "function"
    },
    {
      "inputs": [
        {
          "internalType": "address",
          "name": "_account",
          "type": "address"
        },
        {
          "internalType": "uint256",
          "name": "_amount",
          "type": "uint256"
        }
      ],
      "name": "stakeNovaForAccount",
      "outputs": [],
      "stateMutability": "nonpayable",
      "type": "function"
    },
    {
      "inputs": [],
      "name": "stakedNlpTracker",
      "outputs": [
        {
          "internalType": "address",
          "name": "",
          "type": "address"
        }
      ],
      "stateMutability": "view",
      "type": "function"
    },
    {
      "inputs": [],
      "name": "stakedNovaTracker",
      "outputs": [
        {
          "internalType": "address",
          "name": "",
          "type": "address"
        }
      ],
      "stateMutability": "view",
      "type": "function"
    },
    {
      "inputs": [
        {
          "internalType": "address",
          "name": "_tokenOut",
          "type": "address"
        },
        {
          "internalType": "uint256",
          "name": "_nlpAmount",
          "type": "uint256"
        },
        {
          "internalType": "uint256",
          "name": "_minOut",
          "type": "uint256"
        },
        {
          "internalType": "address",
          "name": "_receiver",
          "type": "address"
        }
      ],
      "name": "unstakeAndRedeemNlp",
      "outputs": [
        {
          "internalType": "uint256",
          "name": "",
          "type": "uint256"
        }
      ],
      "stateMutability": "nonpayable",
      "type": "function"
    },
    {
      "inputs": [
        {
          "internalType": "uint256",
          "name": "_nlpAmount",
          "type": "uint256"
        },
        {
          "internalType": "uint256",
          "name": "_minOut",
          "type": "uint256"
        },
        {
          "internalType": "address payable",
          "name": "_receiver",
          "type": "address"
        }
      ],
      "name": "unstakeAndRedeemNlpETH",
      "outputs": [
        {
          "internalType": "uint256",
          "name": "",
          "type": "uint256"
        }
      ],
      "stateMutability": "nonpayable",
      "type": "function"
    },
    {
      "inputs": [
        {
          "internalType": "uint256",
          "name": "_amount",
          "type": "uint256"
        }
      ],
      "name": "unstakeEsNova",
      "outputs": [],
      "stateMutability": "nonpayable",
      "type": "function"
    },
    {
      "inputs": [
        {
          "internalType": "uint256",
          "name": "_amount",
          "type": "uint256"
        }
      ],
      "name": "unstakeNova",
      "outputs": [],
      "stateMutability": "nonpayable",
      "type": "function"
    },
    {
      "inputs": [],
      "name": "weth",
      "outputs": [
        {
          "internalType": "address",
          "name": "",
          "type": "address"
        }
      ],
      "stateMutability": "view",
      "type": "function"
    },
    {
      "inputs": [
        {
          "internalType": "address",
          "name": "_token",
          "type": "address"
        },
        {
          "internalType": "address",
          "name": "_account",
          "type": "address"
        },
        {
          "internalType": "uint256",
          "name": "_amount",
          "type": "uint256"
        }
      ],
      "name": "withdrawToken",
      "outputs": [],
      "stateMutability": "nonpayable",
      "type": "function"
    },
    {
      "stateMutability": "payable",
      "type": "receive"
    }
  ],
  "bytecode": "0x608060405234801561001057600080fd5b506001600081905580546001600160a01b031916331790556153ad806100376000396000f3fe6080604052600436106101b95760003560e01c806301e336671461021d5780630add4853146102605780630fa2ad531461029157806312d43a51146102ea5780631af276a6146102ff5780631de51be1146103ad5780631e5ba66c146103d75780632a9f4083146103ec5780632ce934941461041f5780632fdd983d1461045e57806330b70002146104f957806332fab51614610555578063333f08401461056a578063392e53cd1461057f5780633fc8cef3146105a85780634e71d92d146105bd578063527f3043146105d25780635b5e4ab9146105f5578063655603a41461060a5780638ecf29631461063d5780639521b5b21461066757806397b756e7146107975780639a8a4efd146107ac5780639e8e15fd146107c1578063a30d7938146107eb578063a4e4d74014610800578063a57f065914610815578063b3d33c0a1461084e578063bec025be14610863578063cc2f86ce14610878578063cfad57a2146108bd578063d294f093146108f0578063d5c0233214610905578063e1b9db891461091a578063ef9aacfd1461094d578063f68d0a2714610980578063f69e2046146109aa578063fd00fbae146109bf57610218565b36610218576002546001600160a01b03163314610216576040805162461bcd60e51b81526020600482015260166024820152752937baba32b91d1034b73b30b634b21039b2b73232b960511b604482015290519081900360640190fd5b005b600080fd5b34801561022957600080fd5b506102166004803603606081101561024057600080fd5b506001600160a01b038135811691602081013590911690604001356109d4565b34801561026c57600080fd5b50610275610a3a565b604080516001600160a01b039092168252519081900360200190f35b34801561029d57600080fd5b506102d8600480360360808110156102b457600080fd5b506001600160a01b0381358116916020810135916040820135916060013516610a49565b60408051918252519081900360200190f35b3480156102f657600080fd5b50610275610cb9565b34801561030b57600080fd5b506102166004803603602081101561032257600080fd5b810190602081018135600160201b81111561033c57600080fd5b82018360208201111561034e57600080fd5b803590602001918460208302840111600160201b8311171561036f57600080fd5b919080806020026020016040519081016040528093929190818152602001838360200280828437600092019190915250929550610cc8945050505050565b3480156103b957600080fd5b50610216600480360360208110156103d057600080fd5b5035610d99565b3480156103e357600080fd5b50610275610e06565b3480156103f857600080fd5b506102166004803603602081101561040f57600080fd5b50356001600160a01b0316610e15565b34801561042b57600080fd5b506102d86004803603606081101561044257600080fd5b50803590602081013590604001356001600160a01b0316610eb6565b34801561046a57600080fd5b5061021660048036036101a081101561048257600080fd5b506001600160a01b038135811691602081013582169160408201358116916060810135821691608082013581169160a081013582169160c082013581169160e0810135821691610100820135811691610120810135821691610140820135811691610160810135821691610180909101351661119f565b34801561050557600080fd5b50610216600480360360e081101561051c57600080fd5b508035151590602081013515159060408101351515906060810135151590608081013515159060a081013515159060c00135151561132c565b34801561056157600080fd5b506102756119ee565b34801561057657600080fd5b506102756119fd565b34801561058b57600080fd5b50610594611a0c565b604080519115158252519081900360200190f35b3480156105b457600080fd5b50610275611a1c565b3480156105c957600080fd5b50610216611a2b565b6102d8600480360360408110156105e857600080fd5b5080359060200135611c8a565b34801561060157600080fd5b50610275611ff5565b34801561061657600080fd5b506102166004803603602081101561062d57600080fd5b50356001600160a01b0316612004565b34801561064957600080fd5b506102166004803603602081101561066057600080fd5b5035612a0d565b34801561067357600080fd5b506102166004803603604081101561068a57600080fd5b810190602081018135600160201b8111156106a457600080fd5b8201836020820111156106b657600080fd5b803590602001918460208302840111600160201b831117156106d757600080fd5b9190808060200260200160405190810160405280939291908181526020018383602002808284376000920191909152509295949360208101935035915050600160201b81111561072657600080fd5b82018360208201111561073857600080fd5b803590602001918460208302840111600160201b8311171561075957600080fd5b919080806020026020016040519081016040528093929190818152602001838360200280828437600092019190915250929550612a72945050505050565b3480156107a357600080fd5b50610275612b67565b3480156107b857600080fd5b50610275612b76565b3480156107cd57600080fd5b50610216600480360360208110156107e457600080fd5b5035612b85565b3480156107f757600080fd5b50610275612bea565b34801561080c57600080fd5b50610275612bf9565b34801561082157600080fd5b506102166004803603604081101561083857600080fd5b506001600160a01b038135169060200135612c08565b34801561085a57600080fd5b50610216612cba565b34801561086f57600080fd5b50610275612d5f565b34801561088457600080fd5b506102d86004803603608081101561089b57600080fd5b506001600160a01b038135169060208101359060408101359060600135612d6e565b3480156108c957600080fd5b50610216600480360360208110156108e057600080fd5b50356001600160a01b0316612fdc565b3480156108fc57600080fd5b5061021661304b565b34801561091157600080fd5b50610275613172565b34801561092657600080fd5b506102756004803603602081101561093d57600080fd5b50356001600160a01b0316613181565b34801561095957600080fd5b506102166004803603602081101561097057600080fd5b50356001600160a01b031661319c565b34801561098c57600080fd5b50610216600480360360208110156109a357600080fd5b503561338a565b3480156109b657600080fd5b506102166133ef565b3480156109cb57600080fd5b5061027561344a565b6001546001600160a01b03163314610a21576040805162461bcd60e51b81526020600482015260156024820152600080516020614f89833981519152604482015290519081900360640190fd5b610a356001600160a01b0384168383613459565b505050565b600c546001600160a01b031681565b600060026000541415610a91576040805162461bcd60e51b815260206004820152601f6024820152600080516020614f0c833981519152604482015290519081900360640190fd5b600260005583610ad6576040805162461bcd60e51b815260206004820181905260248201526000805160206150ca833981519152604482015290519081900360640190fd5b600a54600b546040805163098bf59d60e01b815233600482018190526001600160a01b039384166024830152604482018990526064820181905291519193929092169163098bf59d91608480830192600092919082900301818387803b158015610b3f57600080fd5b505af1158015610b53573d6000803e3d6000fd5b5050600b546006546040805163098bf59d60e01b81526001600160a01b03878116600483018190529381166024830152604482018c90526064820193909352905191909216935063098bf59d9250608480830192600092919082900301818387803b158015610bc157600080fd5b505af1158015610bd5573d6000803e3d6000fd5b5050600c54604080516371d597ad60e01b81526001600160a01b0386811660048301528b81166024830152604482018b9052606482018a905288811660848301529151600095509190921692506371d597ad9160a48082019260209290919082900301818787803b158015610c4957600080fd5b505af1158015610c5d573d6000803e3d6000fd5b505050506040513d6020811015610c7357600080fd5b5051604080516001600160a01b0385168152602081018990528151929350600080516020615234833981519152929081900390910190a160016000559695505050505050565b6001546001600160a01b031681565b60026000541415610d0e576040805162461bcd60e51b815260206004820152601f6024820152600080516020614f0c833981519152604482015290519081900360640190fd5b60026000556001546001600160a01b03163314610d60576040805162461bcd60e51b81526020600482015260156024820152600080516020614f89833981519152604482015290519081900360640190fd5b60005b8151811015610d9057610d88828281518110610d7b57fe5b60200260200101516134ab565b600101610d63565b50506001600055565b60026000541415610ddf576040805162461bcd60e51b815260206004820152601f6024820152600080516020614f0c833981519152604482015290519081900360640190fd5b6002600055600354610dfe90339081906001600160a01b0316846134c0565b506001600055565b6003546001600160a01b031681565b60026000541415610e5b576040805162461bcd60e51b815260206004820152601f6024820152600080516020614f0c833981519152604482015290519081900360640190fd5b60026000556001546001600160a01b03163314610ead576040805162461bcd60e51b81526020600482015260156024820152600080516020614f89833981519152604482015290519081900360640190fd5b610dfe816134ab565b600060026000541415610efe576040805162461bcd60e51b815260206004820152601f6024820152600080516020614f0c833981519152604482015290519081900360640190fd5b600260005583610f43576040805162461bcd60e51b815260206004820181905260248201526000805160206150ca833981519152604482015290519081900360640190fd5b600a54600b546040805163098bf59d60e01b815233600482018190526001600160a01b039384166024830152604482018990526064820181905291519193929092169163098bf59d91608480830192600092919082900301818387803b158015610fac57600080fd5b505af1158015610fc0573d6000803e3d6000fd5b5050600b546006546040805163098bf59d60e01b81526001600160a01b03878116600483018190529381166024830152604482018c90526064820193909352905191909216935063098bf59d9250608480830192600092919082900301818387803b15801561102e57600080fd5b505af1158015611042573d6000803e3d6000fd5b5050600c54600254604080516371d597ad60e01b81526001600160a01b0387811660048301529283166024820152604481018b9052606481018a90523060848201529051600095509190921692506371d597ad9160a48082019260209290919082900301818787803b1580156110b757600080fd5b505af11580156110cb573d6000803e3d6000fd5b505050506040513d60208110156110e157600080fd5b505160025460408051632e1a7d4d60e01b81526004810184905290519293506001600160a01b0390911691632e1a7d4d9160248082019260009290919082900301818387803b15801561113357600080fd5b505af1158015611147573d6000803e3d6000fd5b5061115f925050506001600160a01b038516826136cf565b604080516001600160a01b0384168152602081018890528151600080516020615234833981519152929181900390910190a1600160005595945050505050565b6001546001600160a01b031633146111ec576040805162461bcd60e51b81526020600482015260156024820152600080516020614f89833981519152604482015290519081900360640190fd5b600154600160a01b900460ff16156112355760405162461bcd60e51b815260040180806020018281038252602181526020018061503f6021913960400191505060405180910390fd5b6001805460ff60a01b1916600160a01b179055600280546001600160a01b039e8f166001600160a01b031991821617909155600380549d8f169d82169d909d17909c55600480549b8e169b8d169b909b17909a5560058054998d16998c169990991790985560068054978c16978b169790971790965560078054958b16958a169590951790945560088054938a169389169390931790925560098054918916918816919091179055600b8054918816918716919091179055600a8054918716918616919091179055600c8054918616918516919091179055600d8054918516918416919091179055600e8054919093169116179055565b60026000541415611372576040805162461bcd60e51b815260206004820152601f6024820152600080516020614f0c833981519152604482015290519081900360640190fd5b600260009081553390881561149e57600d54604080516309f4173d60e11b81526001600160a01b03858116600483018190526024830152915160009392909216916313e82e7a9160448082019260209290919082900301818787803b1580156113da57600080fd5b505af11580156113ee573d6000803e3d6000fd5b505050506040513d602081101561140457600080fd5b5051600e54604080516309f4173d60e11b81526001600160a01b03878116600483018190526024830152915193945060009391909216916313e82e7a91604480830192602092919082900301818787803b15801561146157600080fd5b505af1158015611475573d6000803e3d6000fd5b505050506040513d602081101561148b57600080fd5b5051905061149982826137b4565b925050505b8780156114ab5750600081115b156114ca576003546114ca90839081906001600160a01b0316846134c0565b600087156115ef57600754604080516309f4173d60e11b81526001600160a01b03868116600483018190526024830152915160009392909216916313e82e7a9160448082019260209290919082900301818787803b15801561152b57600080fd5b505af115801561153f573d6000803e3d6000fd5b505050506040513d602081101561155557600080fd5b5051600a54604080516309f4173d60e11b81526001600160a01b03888116600483018190526024830152915193945060009391909216916313e82e7a91604480830192602092919082900301818787803b1580156115b257600080fd5b505af11580156115c6573d6000803e3d6000fd5b505050506040513d60208110156115dc57600080fd5b505190506115ea82826137b4565b925050505b8680156115fc5750600081115b1561161b5760045461161b90849081906001600160a01b0316846134c0565b851561173057600854604080516309f4173d60e11b81526001600160a01b03868116600483018190526024830152915160009392909216916313e82e7a9160448082019260209290919082900301818787803b15801561167a57600080fd5b505af115801561168e573d6000803e3d6000fd5b505050506040513d60208110156116a457600080fd5b50519050801561172e5760095460055460408051631e42d69b60e21b81526001600160a01b038881166004830181905260248301529283166044820152606481018590529051919092169163790b5a6c91608480830192600092919082900301818387803b15801561171557600080fd5b505af1158015611729573d6000803e3d6000fd5b505050505b505b84156119dd5783156118d857600954604080516309f4173d60e11b81526001600160a01b038681166004830152306024830152915160009392909216916313e82e7a9160448082019260209290919082900301818787803b15801561179457600080fd5b505af11580156117a8573d6000803e3d6000fd5b505050506040513d60208110156117be57600080fd5b5051600b54604080516309f4173d60e11b81526001600160a01b038881166004830152306024830152915193945060009391909216916313e82e7a91604480830192602092919082900301818787803b15801561181a57600080fd5b505af115801561182e573d6000803e3d6000fd5b505050506040513d602081101561184457600080fd5b50519050600061185483836137b4565b60025460408051632e1a7d4d60e01b81526004810184905290519293506001600160a01b0390911691632e1a7d4d9160248082019260009290919082900301818387803b1580156118a457600080fd5b505af11580156118b8573d6000803e3d6000fd5b506118d0925050506001600160a01b038716826136cf565b5050506119dd565b600954604080516309f4173d60e11b81526001600160a01b03868116600483018190526024830152915191909216916313e82e7a9160448083019260209291908290030181600087803b15801561192e57600080fd5b505af1158015611942573d6000803e3d6000fd5b505050506040513d602081101561195857600080fd5b5050600b54604080516309f4173d60e11b81526001600160a01b03868116600483018190526024830152915191909216916313e82e7a9160448083019260209291908290030181600087803b1580156119b057600080fd5b505af11580156119c4573d6000803e3d6000fd5b505050506040513d60208110156119da57600080fd5b50505b505060016000555050505050505050565b6008546001600160a01b031681565b600a546001600160a01b031681565b600154600160a01b900460ff1681565b6002546001600160a01b031681565b60026000541415611a71576040805162461bcd60e51b815260206004820152601f6024820152600080516020614f0c833981519152604482015290519081900360640190fd5b60026000908155600954604080516309f4173d60e11b8152336004820181905260248201819052915191936001600160a01b03909316926313e82e7a926044808401936020939083900390910190829087803b158015611ad057600080fd5b505af1158015611ae4573d6000803e3d6000fd5b505050506040513d6020811015611afa57600080fd5b5050600b54604080516309f4173d60e11b81526001600160a01b03848116600483018190526024830152915191909216916313e82e7a9160448083019260209291908290030181600087803b158015611b5257600080fd5b505af1158015611b66573d6000803e3d6000fd5b505050506040513d6020811015611b7c57600080fd5b5050600754604080516309f4173d60e11b81526001600160a01b03848116600483018190526024830152915191909216916313e82e7a9160448083019260209291908290030181600087803b158015611bd457600080fd5b505af1158015611be8573d6000803e3d6000fd5b505050506040513d6020811015611bfe57600080fd5b5050600a54604080516309f4173d60e11b81526001600160a01b03848116600483018190526024830152915191909216916313e82e7a9160448083019260209291908290030181600087803b158015611c5657600080fd5b505af1158015611c6a573d6000803e3d6000fd5b505050506040513d6020811015611c8057600080fd5b5050600160005550565b600060026000541415611cd2576040805162461bcd60e51b815260206004820152601f6024820152600080516020614f0c833981519152604482015290519081900360640190fd5b600260005534611d29576040805162461bcd60e51b815260206004820152601f60248201527f526577617264526f757465723a20696e76616c6964206d73672e76616c756500604482015290519081900360640190fd5b600260009054906101000a90046001600160a01b03166001600160a01b031663d0e30db0346040518263ffffffff1660e01b81526004016000604051808303818588803b158015611d7957600080fd5b505af1158015611d8d573d6000803e3d6000fd5b5050600254600c546040805163095ea7b360e01b81526001600160a01b039283166004820152346024820152905191909216945063095ea7b39350604480830193506020928290030181600087803b158015611de857600080fd5b505af1158015611dfc573d6000803e3d6000fd5b505050506040513d6020811015611e1257600080fd5b5050600c54600254604080516317eb2a1560e01b815230600482015233602482018190526001600160a01b0393841660448301523460648301526084820188905260a482018790529151919360009316916317eb2a159160c48082019260209290919082900301818787803b158015611e8a57600080fd5b505af1158015611e9e573d6000803e3d6000fd5b505050506040513d6020811015611eb457600080fd5b5051600b5460065460408051631e42d69b60e21b81526001600160a01b03878116600483018190526024830152928316604482015260648101859052905193945091169163790b5a6c9160848082019260009290919082900301818387803b158015611f1f57600080fd5b505af1158015611f33573d6000803e3d6000fd5b5050600a54600b5460408051631e42d69b60e21b81526001600160a01b03888116600483018190526024830152928316604482015260648101879052905191909216935063790b5a6c9250608480830192600092919082900301818387803b158015611f9e57600080fd5b505af1158015611fb2573d6000803e3d6000fd5b5050604080516001600160a01b03861681526020810185905281516000805160206150868339815191529450908190039091019150a16001600055949350505050565b6007546001600160a01b031681565b6002600054141561204a576040805162461bcd60e51b815260206004820152601f6024820152600080516020614f0c833981519152604482015290519081900360640190fd5b6002600055600d54604080516370a0823160e01b81526001600160a01b038481166004830152915191909216916370a08231916024808301926020929190829003018186803b15801561209c57600080fd5b505afa1580156120b0573d6000803e3d6000fd5b505050506040513d60208110156120c657600080fd5b5051156121045760405162461bcd60e51b8152600401808060200182810382526026815260200180614f2c6026913960400191505060405180910390fd5b600e54604080516370a0823160e01b81526001600160a01b038481166004830152915191909216916370a08231916024808301926020929190829003018186803b15801561215157600080fd5b505afa158015612165573d6000803e3d6000fd5b505050506040513d602081101561217b57600080fd5b5051156121b95760405162461bcd60e51b8152600401808060200182810382526026815260200180614f2c6026913960400191505060405180910390fd5b6001600160a01b038181166000908152600f602052604090205433911681146122135760405162461bcd60e51b81526004018080602001828103825260248152602001806150a66024913960400191505060405180910390fd5b6001600160a01b0382166000908152600f6020526040902080546001600160a01b031916905561224281613815565b61224b826134ab565b60075460035460408051637aeceb1f60e11b81526001600160a01b03868116600483015292831660248201529051600093929092169163f5d9d63e91604480820192602092909190829003018186803b1580156122a757600080fd5b505afa1580156122bb573d6000803e3d6000fd5b505050506040513d60208110156122d157600080fd5b50519050801561230f576003546122f59084906001600160a01b0316836000614365565b60035461230f90849084906001600160a01b0316846134c0565b6007546004805460408051637aeceb1f60e11b81526001600160a01b0388811694820194909452918316602483015251600093929092169163f5d9d63e91604480820192602092909190829003018186803b15801561236d57600080fd5b505afa158015612381573d6000803e3d6000fd5b505050506040513d602081101561239757600080fd5b5051905080156123d5576004546123bb9085906001600160a01b0316836000614365565b6004546123d590859085906001600160a01b0316846134c0565b60095460055460408051637aeceb1f60e11b81526001600160a01b03888116600483015292831660248201529051600093929092169163f5d9d63e91604480820192602092909190829003018186803b15801561243157600080fd5b505afa158015612445573d6000803e3d6000fd5b505050506040513d602081101561245b57600080fd5b505190508015612568576009546005546040805163098bf59d60e01b81526001600160a01b038981166004830181905293811660248301526044820186905260648201939093529051919092169163098bf59d91608480830192600092919082900301818387803b1580156124cf57600080fd5b505af11580156124e3573d6000803e3d6000fd5b505060095460055460408051631e42d69b60e21b81526001600160a01b038b811660048301528a81166024830152928316604482015260648101879052905191909216935063790b5a6c9250608480830192600092919082900301818387803b15801561254f57600080fd5b505af1158015612563573d6000803e3d6000fd5b505050505b6000600460009054906101000a90046001600160a01b03166001600160a01b03166370a08231876040518263ffffffff1660e01b815260040180826001600160a01b0316815260200191505060206040518083038186803b1580156125cc57600080fd5b505afa1580156125e0573d6000803e3d6000fd5b505050506040513d60208110156125f657600080fd5b50519050801561268f5760048054604080516323b872dd60e01b81526001600160a01b038a811694820194909452888416602482015260448101859052905192909116916323b872dd916064808201926020929091908290030181600087803b15801561266257600080fd5b505af1158015612676573d6000803e3d6000fd5b505050506040513d602081101561268c57600080fd5b50505b600b5460065460408051637aeceb1f60e11b81526001600160a01b038a8116600483015292831660248201529051600093929092169163f5d9d63e91604480820192602092909190829003018186803b1580156126eb57600080fd5b505afa1580156126ff573d6000803e3d6000fd5b505050506040513d602081101561271557600080fd5b50519050801561292357600a54600b546040805163098bf59d60e01b81526001600160a01b038b81166004830181905293811660248301526044820186905260648201939093529051919092169163098bf59d91608480830192600092919082900301818387803b15801561278957600080fd5b505af115801561279d573d6000803e3d6000fd5b5050600b546006546040805163098bf59d60e01b81526001600160a01b038d8116600483018190529381166024830152604482018890526064820193909352905191909216935063098bf59d9250608480830192600092919082900301818387803b15801561280b57600080fd5b505af115801561281f573d6000803e3d6000fd5b5050600b5460065460408051631e42d69b60e21b81526001600160a01b038d811660048301528c81166024830152928316604482015260648101879052905191909216935063790b5a6c9250608480830192600092919082900301818387803b15801561288b57600080fd5b505af115801561289f573d6000803e3d6000fd5b5050600a54600b5460408051631e42d69b60e21b81526001600160a01b038c8116600483018190526024830152928316604482015260648101879052905191909216935063790b5a6c9250608480830192600092919082900301818387803b15801561290a57600080fd5b505af115801561291e573d6000803e3d6000fd5b505050505b600d5460408051630f713c2360e41b81526001600160a01b038a8116600483015289811660248301529151919092169163f713c23091604480830192600092919082900301818387803b15801561297957600080fd5b505af115801561298d573d6000803e3d6000fd5b5050600e5460408051630f713c2360e41b81526001600160a01b038c811660048301528b81166024830152915191909216935063f713c2309250604480830192600092919082900301818387803b1580156129e757600080fd5b505af11580156129fb573d6000803e3d6000fd5b50506001600055505050505050505050565b60026000541415612a53576040805162461bcd60e51b815260206004820152601f6024820152600080516020614f0c833981519152604482015290519081900360640190fd5b6002600055600454610dfe90339081906001600160a01b0316846134c0565b60026000541415612ab8576040805162461bcd60e51b815260206004820152601f6024820152600080516020614f0c833981519152604482015290519081900360640190fd5b60026000556001546001600160a01b03163314612b0a576040805162461bcd60e51b81526020600482015260156024820152600080516020614f89833981519152604482015290519081900360640190fd5b6003546001600160a01b031660005b8351811015612b5c57612b5433858381518110612b3257fe5b602002602001015184868581518110612b4757fe5b60200260200101516134c0565b600101612b19565b505060016000555050565b600b546001600160a01b031681565b6005546001600160a01b031681565b60026000541415612bcb576040805162461bcd60e51b815260206004820152601f6024820152600080516020614f0c833981519152604482015290519081900360640190fd5b6002600055600454610dfe9033906001600160a01b0316836001614365565b6006546001600160a01b031681565b6004546001600160a01b031681565b60026000541415612c4e576040805162461bcd60e51b815260206004820152601f6024820152600080516020614f0c833981519152604482015290519081900360640190fd5b60026000556001546001600160a01b03163314612ca0576040805162461bcd60e51b81526020600482015260156024820152600080516020614f89833981519152604482015290519081900360640190fd5b600354610d9090339084906001600160a01b0316846134c0565b60026000541415612d00576040805162461bcd60e51b815260206004820152601f6024820152600080516020614f0c833981519152604482015290519081900360640190fd5b60026000908155600754604080516309f4173d60e11b8152336004820181905260248201819052915191936001600160a01b03909316926313e82e7a926044808401936020939083900390910190829087803b158015611bd457600080fd5b600e546001600160a01b031681565b600060026000541415612db6576040805162461bcd60e51b815260206004820152601f6024820152600080516020614f0c833981519152604482015290519081900360640190fd5b600260005583612dfb576040805162461bcd60e51b815260206004820152601d6024820152600080516020615358833981519152604482015290519081900360640190fd5b600c54604080516317eb2a1560e01b81523360048201819052602482018190526001600160a01b038981166044840152606483018990526084830188905260a483018790529251909360009316916317eb2a159160c480830192602092919082900301818787803b158015612e6f57600080fd5b505af1158015612e83573d6000803e3d6000fd5b505050506040513d6020811015612e9957600080fd5b5051600b5460065460408051631e42d69b60e21b81526001600160a01b03878116600483018190526024830152928316604482015260648101859052905193945091169163790b5a6c9160848082019260009290919082900301818387803b158015612f0457600080fd5b505af1158015612f18573d6000803e3d6000fd5b5050600a54600b5460408051631e42d69b60e21b81526001600160a01b03888116600483018190526024830152928316604482015260648101879052905191909216935063790b5a6c9250608480830192600092919082900301818387803b158015612f8357600080fd5b505af1158015612f97573d6000803e3d6000fd5b5050604080516001600160a01b03861681526020810185905281516000805160206150868339815191529450908190039091019150a160016000559695505050505050565b6001546001600160a01b03163314613029576040805162461bcd60e51b81526020600482015260156024820152600080516020614f89833981519152604482015290519081900360640190fd5b600180546001600160a01b0319166001600160a01b0392909216919091179055565b60026000541415613091576040805162461bcd60e51b815260206004820152601f6024820152600080516020614f0c833981519152604482015290519081900360640190fd5b60026000908155600954604080516309f4173d60e11b8152336004820181905260248201819052915191936001600160a01b03909316926313e82e7a926044808401936020939083900390910190829087803b1580156130f057600080fd5b505af1158015613104573d6000803e3d6000fd5b505050506040513d602081101561311a57600080fd5b5050600b54604080516309f4173d60e11b81526001600160a01b03848116600483018190526024830152915191909216916313e82e7a9160448083019260209291908290030181600087803b158015611c5657600080fd5b600d546001600160a01b031681565b600f602052600090815260409020546001600160a01b031681565b600260005414156131e2576040805162461bcd60e51b815260206004820152601f6024820152600080516020614f0c833981519152604482015290519081900360640190fd5b6002600055600d54604080516370a0823160e01b815233600482015290516001600160a01b03909216916370a0823191602480820192602092909190829003018186803b15801561323257600080fd5b505afa158015613246573d6000803e3d6000fd5b505050506040513d602081101561325c57600080fd5b50511561329a5760405162461bcd60e51b8152600401808060200182810382526026815260200180614f2c6026913960400191505060405180910390fd5b600e54604080516370a0823160e01b815233600482015290516001600160a01b03909216916370a0823191602480820192602092909190829003018186803b1580156132e557600080fd5b505afa1580156132f9573d6000803e3d6000fd5b505050506040513d602081101561330f57600080fd5b50511561334d5760405162461bcd60e51b8152600401808060200182810382526026815260200180614f2c6026913960400191505060405180910390fd5b61335681613815565b336000908152600f6020526040812080546001600160a01b0319166001600160a01b03939093169290921790915560019055565b600260005414156133d0576040805162461bcd60e51b815260206004820152601f6024820152600080516020614f0c833981519152604482015290519081900360640190fd5b6002600055600354610dfe9033906001600160a01b0316836001614365565b60026000541415613435576040805162461bcd60e51b815260206004820152601f6024820152600080516020614f0c833981519152604482015290519081900360640190fd5b6002600055613443336134ab565b6001600055565b6009546001600160a01b031681565b604080516001600160a01b038416602482015260448082018490528251808303909101815260649091019091526020810180516001600160e01b031663a9059cbb60e01b179052610a359084906148a7565b6134b481614958565b6134bd81614b10565b50565b60008111613503576040805162461bcd60e51b815260206004820152601d6024820152600080516020615358833981519152604482015290519081900360640190fd5b60075460408051631e42d69b60e21b81526001600160a01b03878116600483015286811660248301528581166044830152606482018590529151919092169163790b5a6c91608480830192600092919082900301818387803b15801561356857600080fd5b505af115801561357c573d6000803e3d6000fd5b505060085460075460408051631e42d69b60e21b81526001600160a01b03898116600483018190526024830152928316604482015260648101879052905191909216935063790b5a6c9250608480830192600092919082900301818387803b1580156135e757600080fd5b505af11580156135fb573d6000803e3d6000fd5b505060095460085460408051631e42d69b60e21b81526001600160a01b03898116600483018190526024830152928316604482015260648101879052905191909216935063790b5a6c9250608480830192600092919082900301818387803b15801561366657600080fd5b505af115801561367a573d6000803e3d6000fd5b5050604080516001600160a01b0380881682528616602082015280820185905290517f999e6b300688c02cdf7e45689a539aa69526643f257d33c1fdff319eea10a6439350908190036060019150a150505050565b80471015613724576040805162461bcd60e51b815260206004820152601d60248201527f416464726573733a20696e73756666696369656e742062616c616e6365000000604482015290519081900360640190fd5b6040516000906001600160a01b0384169083908381818185875af1925050503d806000811461376f576040519150601f19603f3d011682016040523d82523d6000602084013e613774565b606091505b5050905080610a355760405162461bcd60e51b815260040180806020018281038252603a815260200180615005603a913960400191505060405180910390fd5b60008282018381101561380c576040805162461bcd60e51b815260206004820152601b60248201527a536166654d6174683a206164646974696f6e206f766572666c6f7760281b604482015290519081900360640190fd5b90505b92915050565b6007546040805163a318021760e01b81526001600160a01b0384811660048301529151919092169163a3180217916024808301926020929190829003018186803b15801561386257600080fd5b505afa158015613876573d6000803e3d6000fd5b505050506040513d602081101561388c57600080fd5b5051156138ca5760405162461bcd60e51b8152600401808060200182810382526038815260200180614fa96038913960400191505060405180910390fd5b60075460408051633792def360e01b81526001600160a01b03848116600483015291519190921691633792def3916024808301926020929190829003018186803b15801561391757600080fd5b505afa15801561392b573d6000803e3d6000fd5b505050506040513d602081101561394157600080fd5b50511561397f5760405162461bcd60e51b81526004018080602001828103825260358152602001806151716035913960400191505060405180910390fd5b6008546040805163a318021760e01b81526001600160a01b0384811660048301529151919092169163a3180217916024808301926020929190829003018186803b1580156139cc57600080fd5b505afa1580156139e0573d6000803e3d6000fd5b505050506040513d60208110156139f657600080fd5b505115613a345760405162461bcd60e51b81526004018080602001828103825260378152602001806151a66037913960400191505060405180910390fd5b60085460408051633792def360e01b81526001600160a01b03848116600483015291519190921691633792def3916024808301926020929190829003018186803b158015613a8157600080fd5b505afa158015613a95573d6000803e3d6000fd5b505050506040513d6020811015613aab57600080fd5b505115613ae95760405162461bcd60e51b815260040180806020018281038252603481526020018061513d6034913960400191505060405180910390fd5b6009546040805163a318021760e01b81526001600160a01b0384811660048301529151919092169163a3180217916024808301926020929190829003018186803b158015613b3657600080fd5b505afa158015613b4a573d6000803e3d6000fd5b505050506040513d6020811015613b6057600080fd5b505115613b9e5760405162461bcd60e51b8152600401808060200182810382526035815260200180614ed76035913960400191505060405180910390fd5b60095460408051633792def360e01b81526001600160a01b03848116600483015291519190921691633792def3916024808301926020929190829003018186803b158015613beb57600080fd5b505afa158015613bff573d6000803e3d6000fd5b505050506040513d6020811015613c1557600080fd5b505115613c535760405162461bcd60e51b81526004018080602001828103825260328152602001806150ea6032913960400191505060405180910390fd5b600d5460408051631ccdc0d760e21b81526001600160a01b03848116600483015291519190921691637337035c916024808301926020929190829003018186803b158015613ca057600080fd5b505afa158015613cb4573d6000803e3d6000fd5b505050506040513d6020811015613cca57600080fd5b505115613d085760405162461bcd60e51b815260040180806020018281038252603c815260200180615254603c913960400191505060405180910390fd5b600d5460408051635b8de71560e11b81526001600160a01b0384811660048301529151919092169163b71bce2a916024808301926020929190829003018186803b158015613d5557600080fd5b505afa158015613d69573d6000803e3d6000fd5b505050506040513d6020811015613d7f57600080fd5b505115613dbd5760405162461bcd60e51b81526004018080602001828103825260398152602001806152906039913960400191505060405180910390fd5b600a546040805163a318021760e01b81526001600160a01b0384811660048301529151919092169163a3180217916024808301926020929190829003018186803b158015613e0a57600080fd5b505afa158015613e1e573d6000803e3d6000fd5b505050506040513d6020811015613e3457600080fd5b505115613e725760405162461bcd60e51b8152600401808060200182810382526037815260200180614f526037913960400191505060405180910390fd5b600a5460408051633792def360e01b81526001600160a01b03848116600483015291519190921691633792def3916024808301926020929190829003018186803b158015613ebf57600080fd5b505afa158015613ed3573d6000803e3d6000fd5b505050506040513d6020811015613ee957600080fd5b505115613f275760405162461bcd60e51b81526004018080602001828103825260348152602001806152c96034913960400191505060405180910390fd5b600b546040805163a318021760e01b81526001600160a01b0384811660048301529151919092169163a3180217916024808301926020929190829003018186803b158015613f7457600080fd5b505afa158015613f88573d6000803e3d6000fd5b505050506040513d6020811015613f9e57600080fd5b505115613fdc5760405162461bcd60e51b81526004018080602001828103825260348152602001806151dd6034913960400191505060405180910390fd5b600b5460408051633792def360e01b81526001600160a01b03848116600483015291519190921691633792def3916024808301926020929190829003018186803b15801561402957600080fd5b505afa15801561403d573d6000803e3d6000fd5b505050506040513d602081101561405357600080fd5b5051156140915760405162461bcd60e51b81526004018080602001828103825260318152602001806153276031913960400191505060405180910390fd5b600e5460408051631ccdc0d760e21b81526001600160a01b03848116600483015291519190921691637337035c916024808301926020929190829003018186803b1580156140de57600080fd5b505afa1580156140f2573d6000803e3d6000fd5b505050506040513d602081101561410857600080fd5b5051156141465760405162461bcd60e51b815260040180806020018281038252603c815260200180615254603c913960400191505060405180910390fd5b600e5460408051635b8de71560e11b81526001600160a01b0384811660048301529151919092169163b71bce2a916024808301926020929190829003018186803b15801561419357600080fd5b505afa1580156141a7573d6000803e3d6000fd5b505050506040513d60208110156141bd57600080fd5b5051156141fb5760405162461bcd60e51b81526004018080602001828103825260398152602001806152906039913960400191505060405180910390fd5b600d54604080516370a0823160e01b81526001600160a01b038481166004830152915191909216916370a08231916024808301926020929190829003018186803b15801561424857600080fd5b505afa15801561425c573d6000803e3d6000fd5b505050506040513d602081101561427257600080fd5b5051156142b05760405162461bcd60e51b8152600401808060200182810382526024815260200180614fe16024913960400191505060405180910390fd5b600e54604080516370a0823160e01b81526001600160a01b038481166004830152915191909216916370a08231916024808301926020929190829003018186803b1580156142fd57600080fd5b505afa158015614311573d6000803e3d6000fd5b505050506040513d602081101561432757600080fd5b5051156134bd5760405162461bcd60e51b81526004018080602001828103825260238152602001806152116023913960400191505060405180910390fd5b600082116143a8576040805162461bcd60e51b815260206004820152601d6024820152600080516020615358833981519152604482015290519081900360640190fd5b600754604080516310c1c10360e01b81526001600160a01b038781166004830152915160009392909216916310c1c10391602480820192602092909190829003018186803b1580156143f957600080fd5b505afa15801561440d573d6000803e3d6000fd5b505050506040513d602081101561442357600080fd5b50516009546008546040805163098bf59d60e01b81526001600160a01b038a8116600483018190529381166024830152604482018990526064820193909352905193945091169163098bf59d9160848082019260009290919082900301818387803b15801561449157600080fd5b505af11580156144a5573d6000803e3d6000fd5b50506008546007546040805163098bf59d60e01b81526001600160a01b038b8116600483018190529381166024830152604482018a90526064820193909352905191909216935063098bf59d9250608480830192600092919082900301818387803b15801561451357600080fd5b505af1158015614527573d6000803e3d6000fd5b50506007546040805163098bf59d60e01b81526001600160a01b038a8116600483018190528a82166024840152604483018a90526064830152915191909216935063098bf59d9250608480830192600092919082900301818387803b15801561458f57600080fd5b505af11580156145a3573d6000803e3d6000fd5b50505050811561485657600854604080516309f4173d60e11b81526001600160a01b03888116600483018190526024830152915160009392909216916313e82e7a9160448082019260209290919082900301818787803b15801561460657600080fd5b505af115801561461a573d6000803e3d6000fd5b505050506040513d602081101561463057600080fd5b5051905080156146ba5760095460055460408051631e42d69b60e21b81526001600160a01b038a81166004830181905260248301529283166044820152606481018590529051919092169163790b5a6c91608480830192600092919082900301818387803b1580156146a157600080fd5b505af11580156146b5573d6000803e3d6000fd5b505050505b60095460055460408051637aeceb1f60e11b81526001600160a01b038a8116600483015292831660248201529051600093929092169163f5d9d63e91604480820192602092909190829003018186803b15801561471657600080fd5b505afa15801561472a573d6000803e3d6000fd5b505050506040513d602081101561474057600080fd5b5051905080156148535760006147608461475a8489614bbb565b90614c14565b6009546005546040805163098bf59d60e01b81526001600160a01b038d8116600483018190529381166024830152604482018690526064820193909352905193945091169163098bf59d9160848082019260009290919082900301818387803b1580156147cc57600080fd5b505af11580156147e0573d6000803e3d6000fd5b505060055460408051632770a7eb60e21b81526001600160a01b038d81166004830152602482018790529151919092169350639dc29fac9250604480830192600092919082900301818387803b15801561483957600080fd5b505af115801561484d573d6000803e3d6000fd5b50505050505b50505b604080516001600160a01b0380881682528616602082015280820185905290517f993aec06fc7d3c666fbba80d935bebfc3ba54e00fcdec4d5769ef8e614cf4c4f9181900360600190a15050505050565b60606148fc826040518060400160405280602081526020017f5361666545524332303a206c6f772d6c6576656c2063616c6c206661696c6564815250856001600160a01b0316614c539092919063ffffffff16565b805190915015610a355780806020019051602081101561491b57600080fd5b5051610a355760405162461bcd60e51b815260040180806020018281038252602a8152602001806152fd602a913960400191505060405180910390fd5b600754604080516309f4173d60e11b81526001600160a01b03848116600483018190526024830152915160009392909216916313e82e7a9160448082019260209290919082900301818787803b1580156149b157600080fd5b505af11580156149c5573d6000803e3d6000fd5b505050506040513d60208110156149db57600080fd5b5051905080156149ff576004546149ff90839081906001600160a01b0316846134c0565b600854604080516309f4173d60e11b81526001600160a01b03858116600483018190526024830152915160009392909216916313e82e7a9160448082019260209290919082900301818787803b158015614a5857600080fd5b505af1158015614a6c573d6000803e3d6000fd5b505050506040513d6020811015614a8257600080fd5b505190508015610a355760095460055460408051631e42d69b60e21b81526001600160a01b038781166004830181905260248301529283166044820152606481018590529051919092169163790b5a6c91608480830192600092919082900301818387803b158015614af357600080fd5b505af1158015614b07573d6000803e3d6000fd5b50505050505050565b600a54604080516309f4173d60e11b81526001600160a01b03848116600483018190526024830152915160009392909216916313e82e7a9160448082019260209290919082900301818787803b158015614b6957600080fd5b505af1158015614b7d573d6000803e3d6000fd5b505050506040513d6020811015614b9357600080fd5b505190508015614bb757600454614bb790839081906001600160a01b0316846134c0565b5050565b600082614bca5750600061380f565b82820282848281614bd757fe5b041461380c5760405162461bcd60e51b815260040180806020018281038252602181526020018061511c6021913960400191505060405180910390fd5b600061380c83836040518060400160405280601a815260200179536166654d6174683a206469766973696f6e206279207a65726f60301b815250614c6c565b6060614c628484600085614d0e565b90505b9392505050565b60008183614cf85760405162461bcd60e51b81526004018080602001828103825283818151815260200191508051906020019080838360005b83811015614cbd578181015183820152602001614ca5565b50505050905090810190601f168015614cea5780820380516001836020036101000a031916815260200191505b509250505060405180910390fd5b506000838581614d0457fe5b0495945050505050565b606082471015614d4f5760405162461bcd60e51b81526004018080602001828103825260268152602001806150606026913960400191505060405180910390fd5b614d5885614e6a565b614da9576040805162461bcd60e51b815260206004820152601d60248201527f416464726573733a2063616c6c20746f206e6f6e2d636f6e7472616374000000604482015290519081900360640190fd5b60006060866001600160a01b031685876040518082805190602001908083835b60208310614de85780518252601f199092019160209182019101614dc9565b6001836020036101000a03801982511681845116808217855250505050505090500191505060006040518083038185875af1925050503d8060008114614e4a576040519150601f19603f3d011682016040523d82523d6000602084013e614e4f565b606091505b5091509150614e5f828286614e70565b979650505050505050565b3b151590565b60608315614e7f575081614c65565b825115614e8f5782518084602001fd5b60405162461bcd60e51b8152602060048201818152845160248401528451859391928392604401919085019080838360008315614cbd578181015183820152602001614ca556fe526577617264526f757465723a206665654e6f7661547261636b65722e617665726167655374616b6564416d6f756e7473203e20305265656e7472616e637947756172643a207265656e7472616e742063616c6c00526577617264526f757465723a2073656e646572206861732076657374656420746f6b656e73526577617264526f757465723a207374616b65644e6c70547261636b65722e617665726167655374616b6564416d6f756e7473203e2030476f7665726e61626c653a20666f7262696464656e0000000000000000000000526577617264526f757465723a207374616b65644e6f7661547261636b65722e617665726167655374616b6564416d6f756e7473203e2030526577617264526f757465723a206e6f76615665737465722e62616c616e6365203e2030416464726573733a20756e61626c6520746f2073656e642076616c75652c20726563697069656e74206d61792068617665207265766572746564526577617264526f757465723a20616c726561647920696e697469616c697a6564416464726573733a20696e73756666696369656e742062616c616e636520666f722063616c6c8c35ea96a2dba4a2125563c230bf2d0df1a4d28565b6873c1213b37eeee1bf0b526577617264526f757465723a207472616e73666572206e6f74207369676e616c6c6564526577617264526f757465723a20696e76616c6964205f6e6c70416d6f756e74526577617264526f757465723a206665654e6f7661547261636b65722e63756d756c617469766552657761726473203e2030536166654d6174683a206d756c7469706c69636174696f6e206f766572666c6f77526577617264526f757465723a20626f6e75734e6f7661547261636b65722e63756d756c617469766552657761726473203e2030526577617264526f757465723a207374616b65644e6f7661547261636b65722e63756d756c617469766552657761726473203e2030526577617264526f757465723a20626f6e75734e6f7661547261636b65722e617665726167655374616b6564416d6f756e7473203e2030526577617264526f757465723a206665654e6c70547261636b65722e617665726167655374616b6564416d6f756e7473203e2030526577617264526f757465723a206e6c705665737465722e62616c616e6365203e2030f31c178fc58bad046a8cf4365d6f2d922b8b1aa41d6bed047ca8b85d494761ad526577617264526f757465723a206e6f76615665737465722e7472616e73666572726564417665726167655374616b6564416d6f756e7473203e2030526577617264526f757465723a206e6f76615665737465722e7472616e7366657272656443756d756c617469766552657761726473203e2030526577617264526f757465723a207374616b65644e6c70547261636b65722e63756d756c617469766552657761726473203e20305361666545524332303a204552433230206f7065726174696f6e20646964206e6f742073756363656564526577617264526f757465723a206665654e6c70547261636b65722e63756d756c617469766552657761726473203e2030526577617264526f757465723a20696e76616c6964205f616d6f756e74000000a26469706673582212206fb5f0f6811dd81503bd00f5e3bac115a2f38e0ef71bfc4bb38a6e2c9cf2e99064736f6c634300060c0033",
  "linkReferences": {},
  "deployedLinkReferences": {}
}