{
  "_format": "hh-sol-artifact-1",
  "contractName": "RewardRouter",
  "sourceName": "contracts/staking/RewardRouter.sol",
  "abi": [
    {
      "anonymous": false,
      "inputs": [
        {
          "indexed": false,
          "internalType": "address",
          "name": "account",
          "type": "address"
        },
        {
          "indexed": false,
          "internalType": "uint256",
          "name": "amount",
          "type": "uint256"
        }
      ],
      "name": "StakeNlp",
      "type": "event"
    },
    {
      "anonymous": false,
      "inputs": [
        {
          "indexed": false,
          "internalType": "address",
          "name": "account",
          "type": "address"
        },
        {
          "indexed": false,
          "internalType": "uint256",
          "name": "amount",
          "type": "uint256"
        }
      ],
      "name": "StakeNova",
      "type": "event"
    },
    {
      "anonymous": false,
      "inputs": [
        {
          "indexed": false,
          "internalType": "address",
          "name": "account",
          "type": "address"
        },
        {
          "indexed": false,
          "internalType": "uint256",
          "name": "amount",
          "type": "uint256"
        }
      ],
      "name": "UnstakeNlp",
      "type": "event"
    },
    {
      "anonymous": false,
      "inputs": [
        {
          "indexed": false,
          "internalType": "address",
          "name": "account",
          "type": "address"
        },
        {
          "indexed": false,
          "internalType": "uint256",
          "name": "amount",
          "type": "uint256"
        }
      ],
      "name": "UnstakeNova",
      "type": "event"
    },
    {
      "inputs": [
        {
          "internalType": "address[]",
          "name": "_accounts",
          "type": "address[]"
        }
      ],
      "name": "batchCompoundForAccounts",
      "outputs": [],
      "stateMutability": "nonpayable",
      "type": "function"
    },
    {
      "inputs": [
        {
          "internalType": "address[]",
          "name": "_accounts",
          "type": "address[]"
        },
        {
          "internalType": "uint256[]",
          "name": "_amounts",
          "type": "uint256[]"
        }
      ],
      "name": "batchStakeNovaForAccount",
      "outputs": [],
      "stateMutability": "nonpayable",
      "type": "function"
    },
    {
      "inputs": [],
      "name": "bnNova",
      "outputs": [
        {
          "internalType": "address",
          "name": "",
          "type": "address"
        }
      ],
      "stateMutability": "view",
      "type": "function"
    },
    {
      "inputs": [],
      "name": "bonusNovaTracker",
      "outputs": [
        {
          "internalType": "address",
          "name": "",
          "type": "address"
        }
      ],
      "stateMutability": "view",
      "type": "function"
    },
    {
      "inputs": [],
      "name": "claim",
      "outputs": [],
      "stateMutability": "nonpayable",
      "type": "function"
    },
    {
      "inputs": [],
      "name": "claimEsNova",
      "outputs": [],
      "stateMutability": "nonpayable",
      "type": "function"
    },
    {
      "inputs": [],
      "name": "claimFees",
      "outputs": [],
      "stateMutability": "nonpayable",
      "type": "function"
    },
    {
      "inputs": [],
      "name": "compound",
      "outputs": [],
      "stateMutability": "nonpayable",
      "type": "function"
    },
    {
      "inputs": [
        {
          "internalType": "address",
          "name": "_account",
          "type": "address"
        }
      ],
      "name": "compoundForAccount",
      "outputs": [],
      "stateMutability": "nonpayable",
      "type": "function"
    },
    {
      "inputs": [],
      "name": "esNova",
      "outputs": [
        {
          "internalType": "address",
          "name": "",
          "type": "address"
        }
      ],
      "stateMutability": "view",
      "type": "function"
    },
    {
      "inputs": [],
      "name": "feeNlpTracker",
      "outputs": [
        {
          "internalType": "address",
          "name": "",
          "type": "address"
        }
      ],
      "stateMutability": "view",
      "type": "function"
    },
    {
      "inputs": [],
      "name": "feeNovaTracker",
      "outputs": [
        {
          "internalType": "address",
          "name": "",
          "type": "address"
        }
      ],
      "stateMutability": "view",
      "type": "function"
    },
    {
      "inputs": [],
      "name": "gov",
      "outputs": [
        {
          "internalType": "address",
          "name": "",
          "type": "address"
        }
      ],
      "stateMutability": "view",
      "type": "function"
    },
    {
      "inputs": [
        {
          "internalType": "address",
          "name": "_weth",
          "type": "address"
        },
        {
          "internalType": "address",
          "name": "_nova",
          "type": "address"
        },
        {
          "internalType": "address",
          "name": "_esNova",
          "type": "address"
        },
        {
          "internalType": "address",
          "name": "_bnNova",
          "type": "address"
        },
        {
          "internalType": "address",
          "name": "_nlp",
          "type": "address"
        },
        {
          "internalType": "address",
          "name": "_stakedNovaTracker",
          "type": "address"
        },
        {
          "internalType": "address",
          "name": "_bonusNovaTracker",
          "type": "address"
        },
        {
          "internalType": "address",
          "name": "_feeNovaTracker",
          "type": "address"
        },
        {
          "internalType": "address",
          "name": "_feeNlpTracker",
          "type": "address"
        },
        {
          "internalType": "address",
          "name": "_stakedNlpTracker",
          "type": "address"
        },
        {
          "internalType": "address",
          "name": "_nlpManager",
          "type": "address"
        }
      ],
      "name": "initialize",
      "outputs": [],
      "stateMutability": "nonpayable",
      "type": "function"
    },
    {
      "inputs": [],
      "name": "isInitialized",
      "outputs": [
        {
          "internalType": "bool",
          "name": "",
          "type": "bool"
        }
      ],
      "stateMutability": "view",
      "type": "function"
    },
    {
      "inputs": [
        {
          "internalType": "address",
          "name": "_token",
          "type": "address"
        },
        {
          "internalType": "uint256",
          "name": "_amount",
          "type": "uint256"
        },
        {
          "internalType": "uint256",
          "name": "_minUsdg",
          "type": "uint256"
        },
        {
          "internalType": "uint256",
          "name": "_minNlp",
          "type": "uint256"
        }
      ],
      "name": "mintAndStakeNlp",
      "outputs": [
        {
          "internalType": "uint256",
          "name": "",
          "type": "uint256"
        }
      ],
      "stateMutability": "nonpayable",
      "type": "function"
    },
    {
      "inputs": [
        {
          "internalType": "uint256",
          "name": "_minUsdg",
          "type": "uint256"
        },
        {
          "internalType": "uint256",
          "name": "_minNlp",
          "type": "uint256"
        }
      ],
      "name": "mintAndStakeNlpETH",
      "outputs": [
        {
          "internalType": "uint256",
          "name": "",
          "type": "uint256"
        }
      ],
      "stateMutability": "payable",
      "type": "function"
    },
    {
      "inputs": [],
      "name": "nlp",
      "outputs": [
        {
          "internalType": "address",
          "name": "",
          "type": "address"
        }
      ],
      "stateMutability": "view",
      "type": "function"
    },
    {
      "inputs": [],
      "name": "nlpManager",
      "outputs": [
        {
          "internalType": "address",
          "name": "",
          "type": "address"
        }
      ],
      "stateMutability": "view",
      "type": "function"
    },
    {
      "inputs": [],
      "name": "nova",
      "outputs": [
        {
          "internalType": "address",
          "name": "",
          "type": "address"
        }
      ],
      "stateMutability": "view",
      "type": "function"
    },
    {
      "inputs": [
        {
          "internalType": "address",
          "name": "_gov",
          "type": "address"
        }
      ],
      "name": "setGov",
      "outputs": [],
      "stateMutability": "nonpayable",
      "type": "function"
    },
    {
      "inputs": [
        {
          "internalType": "uint256",
          "name": "_amount",
          "type": "uint256"
        }
      ],
      "name": "stakeEsNova",
      "outputs": [],
      "stateMutability": "nonpayable",
      "type": "function"
    },
    {
      "inputs": [
        {
          "internalType": "uint256",
          "name": "_amount",
          "type": "uint256"
        }
      ],
      "name": "stakeNova",
      "outputs": [],
      "stateMutability": "nonpayable",
      "type": "function"
    },
    {
      "inputs": [
        {
          "internalType": "address",
          "name": "_account",
          "type": "address"
        },
        {
          "internalType": "uint256",
          "name": "_amount",
          "type": "uint256"
        }
      ],
      "name": "stakeNovaForAccount",
      "outputs": [],
      "stateMutability": "nonpayable",
      "type": "function"
    },
    {
      "inputs": [],
      "name": "stakedNlpTracker",
      "outputs": [
        {
          "internalType": "address",
          "name": "",
          "type": "address"
        }
      ],
      "stateMutability": "view",
      "type": "function"
    },
    {
      "inputs": [],
      "name": "stakedNovaTracker",
      "outputs": [
        {
          "internalType": "address",
          "name": "",
          "type": "address"
        }
      ],
      "stateMutability": "view",
      "type": "function"
    },
    {
      "inputs": [
        {
          "internalType": "address",
          "name": "_tokenOut",
          "type": "address"
        },
        {
          "internalType": "uint256",
          "name": "_nlpAmount",
          "type": "uint256"
        },
        {
          "internalType": "uint256",
          "name": "_minOut",
          "type": "uint256"
        },
        {
          "internalType": "address",
          "name": "_receiver",
          "type": "address"
        }
      ],
      "name": "unstakeAndRedeemNlp",
      "outputs": [
        {
          "internalType": "uint256",
          "name": "",
          "type": "uint256"
        }
      ],
      "stateMutability": "nonpayable",
      "type": "function"
    },
    {
      "inputs": [
        {
          "internalType": "uint256",
          "name": "_nlpAmount",
          "type": "uint256"
        },
        {
          "internalType": "uint256",
          "name": "_minOut",
          "type": "uint256"
        },
        {
          "internalType": "address payable",
          "name": "_receiver",
          "type": "address"
        }
      ],
      "name": "unstakeAndRedeemNlpETH",
      "outputs": [
        {
          "internalType": "uint256",
          "name": "",
          "type": "uint256"
        }
      ],
      "stateMutability": "nonpayable",
      "type": "function"
    },
    {
      "inputs": [
        {
          "internalType": "uint256",
          "name": "_amount",
          "type": "uint256"
        }
      ],
      "name": "unstakeEsNova",
      "outputs": [],
      "stateMutability": "nonpayable",
      "type": "function"
    },
    {
      "inputs": [
        {
          "internalType": "uint256",
          "name": "_amount",
          "type": "uint256"
        }
      ],
      "name": "unstakeNova",
      "outputs": [],
      "stateMutability": "nonpayable",
      "type": "function"
    },
    {
      "inputs": [],
      "name": "weth",
      "outputs": [
        {
          "internalType": "address",
          "name": "",
          "type": "address"
        }
      ],
      "stateMutability": "view",
      "type": "function"
    },
    {
      "inputs": [
        {
          "internalType": "address",
          "name": "_token",
          "type": "address"
        },
        {
          "internalType": "address",
          "name": "_account",
          "type": "address"
        },
        {
          "internalType": "uint256",
          "name": "_amount",
          "type": "uint256"
        }
      ],
      "name": "withdrawToken",
      "outputs": [],
      "stateMutability": "nonpayable",
      "type": "function"
    },
    {
      "stateMutability": "payable",
      "type": "receive"
    }
  ],
  "bytecode": "0x608060405234801561001057600080fd5b506001600081905580546001600160a01b0319163317905561304c806100376000396000f3fe6080604052600436106101775760003560e01c806301e33667146101db5780630add48531461021e5780630fa2ad531461024f57806312d43a51146102a85780631af276a6146102bd5780631de51be11461036b5780631e5ba66c146103955780632a9f4083146103aa5780632ce93494146103dd57806332fab5161461041c578063333f084014610431578063392e53cd146104465780633fc8cef31461046f5780634e71d92d14610484578063527f3043146104995780635b5e4ab9146104bc57806376902b83146104d15780638ecf29631461055a5780639521b5b21461058457806397b756e7146106b45780639a8a4efd146106c95780639e8e15fd146106de578063a30d793814610708578063a4e4d7401461071d578063a57f065914610732578063b3d33c0a1461076b578063cc2f86ce14610780578063cfad57a2146107c5578063d294f093146107f8578063f68d0a271461080d578063f69e204614610837578063fd00fbae1461084c576101d6565b366101d6576002546001600160a01b031633146101d4576040805162461bcd60e51b81526020600482015260166024820152752937baba32b91d1034b73b30b634b21039b2b73232b960511b604482015290519081900360640190fd5b005b600080fd5b3480156101e757600080fd5b506101d4600480360360608110156101fe57600080fd5b506001600160a01b03813581169160208101359091169060400135610861565b34801561022a57600080fd5b506102336108c7565b604080516001600160a01b039092168252519081900360200190f35b34801561025b57600080fd5b506102966004803603608081101561027257600080fd5b506001600160a01b03813581169160208101359160408201359160600135166108d6565b60408051918252519081900360200190f35b3480156102b457600080fd5b50610233610b46565b3480156102c957600080fd5b506101d4600480360360208110156102e057600080fd5b810190602081018135600160201b8111156102fa57600080fd5b82018360208201111561030c57600080fd5b803590602001918460208302840111600160201b8311171561032d57600080fd5b919080806020026020016040519081016040528093929190818152602001838360200280828437600092019190915250929550610b55945050505050565b34801561037757600080fd5b506101d46004803603602081101561038e57600080fd5b5035610c26565b3480156103a157600080fd5b50610233610c93565b3480156103b657600080fd5b506101d4600480360360208110156103cd57600080fd5b50356001600160a01b0316610ca2565b3480156103e957600080fd5b506102966004803603606081101561040057600080fd5b50803590602081013590604001356001600160a01b0316610d43565b34801561042857600080fd5b5061023361102c565b34801561043d57600080fd5b5061023361103b565b34801561045257600080fd5b5061045b61104a565b604080519115158252519081900360200190f35b34801561047b57600080fd5b5061023361105a565b34801561049057600080fd5b506101d4611069565b610296600480360360408110156104af57600080fd5b50803590602001356112c8565b3480156104c857600080fd5b50610233611633565b3480156104dd57600080fd5b506101d460048036036101608110156104f557600080fd5b506001600160a01b038135811691602081013582169160408201358116916060810135821691608082013581169160a081013582169160c082013581169160e08101358216916101008201358116916101208101358216916101409091013516611642565b34801561056657600080fd5b506101d46004803603602081101561057d57600080fd5b50356117a9565b34801561059057600080fd5b506101d4600480360360408110156105a757600080fd5b810190602081018135600160201b8111156105c157600080fd5b8201836020820111156105d357600080fd5b803590602001918460208302840111600160201b831117156105f457600080fd5b9190808060200260200160405190810160405280939291908181526020018383602002808284376000920191909152509295949360208101935035915050600160201b81111561064357600080fd5b82018360208201111561065557600080fd5b803590602001918460208302840111600160201b8311171561067657600080fd5b91908080602002602001604051908101604052809392919081815260200183836020028082843760009201919091525092955061180e945050505050565b3480156106c057600080fd5b50610233611903565b3480156106d557600080fd5b50610233611912565b3480156106ea57600080fd5b506101d46004803603602081101561070157600080fd5b5035611921565b34801561071457600080fd5b50610233611984565b34801561072957600080fd5b50610233611993565b34801561073e57600080fd5b506101d46004803603604081101561075557600080fd5b506001600160a01b0381351690602001356119a2565b34801561077757600080fd5b506101d4611a54565b34801561078c57600080fd5b50610296600480360360808110156107a357600080fd5b506001600160a01b038135169060208101359060408101359060600135611af9565b3480156107d157600080fd5b506101d4600480360360208110156107e857600080fd5b50356001600160a01b0316611d67565b34801561080457600080fd5b506101d4611dd6565b34801561081957600080fd5b506101d46004803603602081101561083057600080fd5b5035611efd565b34801561084357600080fd5b506101d4611f60565b34801561085857600080fd5b50610233611fbb565b6001546001600160a01b031633146108ae576040805162461bcd60e51b81526020600482015260156024820152600080516020612eab833981519152604482015290519081900360640190fd5b6108c26001600160a01b0384168383611fca565b505050565b600c546001600160a01b031681565b60006002600054141561091e576040805162461bcd60e51b815260206004820152601f6024820152600080516020612e8b833981519152604482015290519081900360640190fd5b600260005583610963576040805162461bcd60e51b81526020600482018190526024820152600080516020612f6c833981519152604482015290519081900360640190fd5b600a54600b546040805163098bf59d60e01b815233600482018190526001600160a01b039384166024830152604482018990526064820181905291519193929092169163098bf59d91608480830192600092919082900301818387803b1580156109cc57600080fd5b505af11580156109e0573d6000803e3d6000fd5b5050600b546006546040805163098bf59d60e01b81526001600160a01b03878116600483018190529381166024830152604482018c90526064820193909352905191909216935063098bf59d9250608480830192600092919082900301818387803b158015610a4e57600080fd5b505af1158015610a62573d6000803e3d6000fd5b5050600c54604080516371d597ad60e01b81526001600160a01b0386811660048301528b81166024830152604482018b9052606482018a905288811660848301529151600095509190921692506371d597ad9160a48082019260209290919082900301818787803b158015610ad657600080fd5b505af1158015610aea573d6000803e3d6000fd5b505050506040513d6020811015610b0057600080fd5b5051604080516001600160a01b0385168152602081018990528151929350600080516020612fad833981519152929081900390910190a160016000559695505050505050565b6001546001600160a01b031681565b60026000541415610b9b576040805162461bcd60e51b815260206004820152601f6024820152600080516020612e8b833981519152604482015290519081900360640190fd5b60026000556001546001600160a01b03163314610bed576040805162461bcd60e51b81526020600482015260156024820152600080516020612eab833981519152604482015290519081900360640190fd5b60005b8151811015610c1d57610c15828281518110610c0857fe5b602002602001015161201c565b600101610bf0565b50506001600055565b60026000541415610c6c576040805162461bcd60e51b815260206004820152601f6024820152600080516020612e8b833981519152604482015290519081900360640190fd5b6002600055600354610c8b90339081906001600160a01b031684612031565b506001600055565b6003546001600160a01b031681565b60026000541415610ce8576040805162461bcd60e51b815260206004820152601f6024820152600080516020612e8b833981519152604482015290519081900360640190fd5b60026000556001546001600160a01b03163314610d3a576040805162461bcd60e51b81526020600482015260156024820152600080516020612eab833981519152604482015290519081900360640190fd5b610c8b8161201c565b600060026000541415610d8b576040805162461bcd60e51b815260206004820152601f6024820152600080516020612e8b833981519152604482015290519081900360640190fd5b600260005583610dd0576040805162461bcd60e51b81526020600482018190526024820152600080516020612f6c833981519152604482015290519081900360640190fd5b600a54600b546040805163098bf59d60e01b815233600482018190526001600160a01b039384166024830152604482018990526064820181905291519193929092169163098bf59d91608480830192600092919082900301818387803b158015610e3957600080fd5b505af1158015610e4d573d6000803e3d6000fd5b5050600b546006546040805163098bf59d60e01b81526001600160a01b03878116600483018190529381166024830152604482018c90526064820193909352905191909216935063098bf59d9250608480830192600092919082900301818387803b158015610ebb57600080fd5b505af1158015610ecf573d6000803e3d6000fd5b5050600c54600254604080516371d597ad60e01b81526001600160a01b0387811660048301529283166024820152604481018b9052606481018a90523060848201529051600095509190921692506371d597ad9160a48082019260209290919082900301818787803b158015610f4457600080fd5b505af1158015610f58573d6000803e3d6000fd5b505050506040513d6020811015610f6e57600080fd5b505160025460408051632e1a7d4d60e01b81526004810184905290519293506001600160a01b0390911691632e1a7d4d9160248082019260009290919082900301818387803b158015610fc057600080fd5b505af1158015610fd4573d6000803e3d6000fd5b50610fec925050506001600160a01b03851682612239565b604080516001600160a01b0384168152602081018890528151600080516020612fad833981519152929181900390910190a1600160005595945050505050565b6008546001600160a01b031681565b600a546001600160a01b031681565b600154600160a01b900460ff1681565b6002546001600160a01b031681565b600260005414156110af576040805162461bcd60e51b815260206004820152601f6024820152600080516020612e8b833981519152604482015290519081900360640190fd5b60026000908155600954604080516309f4173d60e11b8152336004820181905260248201819052915191936001600160a01b03909316926313e82e7a926044808401936020939083900390910190829087803b15801561110e57600080fd5b505af1158015611122573d6000803e3d6000fd5b505050506040513d602081101561113857600080fd5b5050600b54604080516309f4173d60e11b81526001600160a01b03848116600483018190526024830152915191909216916313e82e7a9160448083019260209291908290030181600087803b15801561119057600080fd5b505af11580156111a4573d6000803e3d6000fd5b505050506040513d60208110156111ba57600080fd5b5050600754604080516309f4173d60e11b81526001600160a01b03848116600483018190526024830152915191909216916313e82e7a9160448083019260209291908290030181600087803b15801561121257600080fd5b505af1158015611226573d6000803e3d6000fd5b505050506040513d602081101561123c57600080fd5b5050600a54604080516309f4173d60e11b81526001600160a01b03848116600483018190526024830152915191909216916313e82e7a9160448083019260209291908290030181600087803b15801561129457600080fd5b505af11580156112a8573d6000803e3d6000fd5b505050506040513d60208110156112be57600080fd5b5050600160005550565b600060026000541415611310576040805162461bcd60e51b815260206004820152601f6024820152600080516020612e8b833981519152604482015290519081900360640190fd5b600260005534611367576040805162461bcd60e51b815260206004820152601f60248201527f526577617264526f757465723a20696e76616c6964206d73672e76616c756500604482015290519081900360640190fd5b600260009054906101000a90046001600160a01b03166001600160a01b031663d0e30db0346040518263ffffffff1660e01b81526004016000604051808303818588803b1580156113b757600080fd5b505af11580156113cb573d6000803e3d6000fd5b5050600254600c546040805163095ea7b360e01b81526001600160a01b039283166004820152346024820152905191909216945063095ea7b39350604480830193506020928290030181600087803b15801561142657600080fd5b505af115801561143a573d6000803e3d6000fd5b505050506040513d602081101561145057600080fd5b5050600c54600254604080516317eb2a1560e01b815230600482015233602482018190526001600160a01b0393841660448301523460648301526084820188905260a482018790529151919360009316916317eb2a159160c48082019260209290919082900301818787803b1580156114c857600080fd5b505af11580156114dc573d6000803e3d6000fd5b505050506040513d60208110156114f257600080fd5b5051600b5460065460408051631e42d69b60e21b81526001600160a01b03878116600483018190526024830152928316604482015260648101859052905193945091169163790b5a6c9160848082019260009290919082900301818387803b15801561155d57600080fd5b505af1158015611571573d6000803e3d6000fd5b5050600a54600b5460408051631e42d69b60e21b81526001600160a01b03888116600483018190526024830152928316604482015260648101879052905191909216935063790b5a6c9250608480830192600092919082900301818387803b1580156115dc57600080fd5b505af11580156115f0573d6000803e3d6000fd5b5050604080516001600160a01b0386168152602081018590528151600080516020612f4c8339815191529450908190039091019150a16001600055949350505050565b6007546001600160a01b031681565b6001546001600160a01b0316331461168f576040805162461bcd60e51b81526020600482015260156024820152600080516020612eab833981519152604482015290519081900360640190fd5b600154600160a01b900460ff16156116d85760405162461bcd60e51b8152600401808060200182810382526021815260200180612f056021913960400191505060405180910390fd5b60018054600160a01b60ff60a01b19909116179055600280546001600160a01b03199081166001600160a01b039d8e16179091556003805482169b8d169b909b17909a55600480548b16998c1699909917909855600580548a16978b1697909717909655600680548916958a169590951790945560078054881693891693909317909255600880548716918816919091179055600980548616918716919091179055600b80548516918616919091179055600a80548416918516919091179055600c80549092169216919091179055565b600260005414156117ef576040805162461bcd60e51b815260206004820152601f6024820152600080516020612e8b833981519152604482015290519081900360640190fd5b6002600055600454610c8b90339081906001600160a01b031684612031565b60026000541415611854576040805162461bcd60e51b815260206004820152601f6024820152600080516020612e8b833981519152604482015290519081900360640190fd5b60026000556001546001600160a01b031633146118a6576040805162461bcd60e51b81526020600482015260156024820152600080516020612eab833981519152604482015290519081900360640190fd5b6003546001600160a01b031660005b83518110156118f8576118f0338583815181106118ce57fe5b6020026020010151848685815181106118e357fe5b6020026020010151612031565b6001016118b5565b505060016000555050565b600b546001600160a01b031681565b6005546001600160a01b031681565b60026000541415611967576040805162461bcd60e51b815260206004820152601f6024820152600080516020612e8b833981519152604482015290519081900360640190fd5b6002600055600454610c8b9033906001600160a01b03168361231e565b6006546001600160a01b031681565b6004546001600160a01b031681565b600260005414156119e8576040805162461bcd60e51b815260206004820152601f6024820152600080516020612e8b833981519152604482015290519081900360640190fd5b60026000556001546001600160a01b03163314611a3a576040805162461bcd60e51b81526020600482015260156024820152600080516020612eab833981519152604482015290519081900360640190fd5b600354610c1d90339084906001600160a01b031684612031565b60026000541415611a9a576040805162461bcd60e51b815260206004820152601f6024820152600080516020612e8b833981519152604482015290519081900360640190fd5b60026000908155600754604080516309f4173d60e11b8152336004820181905260248201819052915191936001600160a01b03909316926313e82e7a926044808401936020939083900390910190829087803b15801561121257600080fd5b600060026000541415611b41576040805162461bcd60e51b815260206004820152601f6024820152600080516020612e8b833981519152604482015290519081900360640190fd5b600260005583611b86576040805162461bcd60e51b815260206004820152601d6024820152600080516020612ff7833981519152604482015290519081900360640190fd5b600c54604080516317eb2a1560e01b81523360048201819052602482018190526001600160a01b038981166044840152606483018990526084830188905260a483018790529251909360009316916317eb2a159160c480830192602092919082900301818787803b158015611bfa57600080fd5b505af1158015611c0e573d6000803e3d6000fd5b505050506040513d6020811015611c2457600080fd5b5051600b5460065460408051631e42d69b60e21b81526001600160a01b03878116600483018190526024830152928316604482015260648101859052905193945091169163790b5a6c9160848082019260009290919082900301818387803b158015611c8f57600080fd5b505af1158015611ca3573d6000803e3d6000fd5b5050600a54600b5460408051631e42d69b60e21b81526001600160a01b03888116600483018190526024830152928316604482015260648101879052905191909216935063790b5a6c9250608480830192600092919082900301818387803b158015611d0e57600080fd5b505af1158015611d22573d6000803e3d6000fd5b5050604080516001600160a01b0386168152602081018590528151600080516020612f4c8339815191529450908190039091019150a160016000559695505050505050565b6001546001600160a01b03163314611db4576040805162461bcd60e51b81526020600482015260156024820152600080516020612eab833981519152604482015290519081900360640190fd5b600180546001600160a01b0319166001600160a01b0392909216919091179055565b60026000541415611e1c576040805162461bcd60e51b815260206004820152601f6024820152600080516020612e8b833981519152604482015290519081900360640190fd5b60026000908155600954604080516309f4173d60e11b8152336004820181905260248201819052915191936001600160a01b03909316926313e82e7a926044808401936020939083900390910190829087803b158015611e7b57600080fd5b505af1158015611e8f573d6000803e3d6000fd5b505050506040513d6020811015611ea557600080fd5b5050600b54604080516309f4173d60e11b81526001600160a01b03848116600483018190526024830152915191909216916313e82e7a9160448083019260209291908290030181600087803b15801561129457600080fd5b60026000541415611f43576040805162461bcd60e51b815260206004820152601f6024820152600080516020612e8b833981519152604482015290519081900360640190fd5b6002600055600354610c8b9033906001600160a01b03168361231e565b60026000541415611fa6576040805162461bcd60e51b815260206004820152601f6024820152600080516020612e8b833981519152604482015290519081900360640190fd5b6002600055611fb43361201c565b6001600055565b6009546001600160a01b031681565b604080516001600160a01b038416602482015260448082018490528251808303909101815260649091019091526020810180516001600160e01b031663a9059cbb60e01b1790526108c2908490612852565b61202581612903565b61202e81612abb565b50565b60008111612074576040805162461bcd60e51b815260206004820152601d6024820152600080516020612ff7833981519152604482015290519081900360640190fd5b60075460408051631e42d69b60e21b81526001600160a01b03878116600483015286811660248301528581166044830152606482018590529151919092169163790b5a6c91608480830192600092919082900301818387803b1580156120d957600080fd5b505af11580156120ed573d6000803e3d6000fd5b505060085460075460408051631e42d69b60e21b81526001600160a01b03898116600483018190526024830152928316604482015260648101879052905191909216935063790b5a6c9250608480830192600092919082900301818387803b15801561215857600080fd5b505af115801561216c573d6000803e3d6000fd5b505060095460085460408051631e42d69b60e21b81526001600160a01b03898116600483018190526024830152928316604482015260648101879052905191909216935063790b5a6c9250608480830192600092919082900301818387803b1580156121d757600080fd5b505af11580156121eb573d6000803e3d6000fd5b5050604080516001600160a01b03871681526020810185905281517f825f8e334c55ca1c13fb34d1b05ec2cd078cfff3156b603dd2d2f1bf916398ed9450908190039091019150a150505050565b8047101561228e576040805162461bcd60e51b815260206004820152601d60248201527f416464726573733a20696e73756666696369656e742062616c616e6365000000604482015290519081900360640190fd5b6040516000906001600160a01b0384169083908381818185875af1925050503d80600081146122d9576040519150601f19603f3d011682016040523d82523d6000602084013e6122de565b606091505b50509050806108c25760405162461bcd60e51b815260040180806020018281038252603a815260200180612ecb603a913960400191505060405180910390fd5b60008111612361576040805162461bcd60e51b815260206004820152601d6024820152600080516020612ff7833981519152604482015290519081900360640190fd5b600754604080516310c1c10360e01b81526001600160a01b038681166004830152915160009392909216916310c1c10391602480820192602092909190829003018186803b1580156123b257600080fd5b505afa1580156123c6573d6000803e3d6000fd5b505050506040513d60208110156123dc57600080fd5b50516009546008546040805163098bf59d60e01b81526001600160a01b03898116600483018190529381166024830152604482018890526064820193909352905193945091169163098bf59d9160848082019260009290919082900301818387803b15801561244a57600080fd5b505af115801561245e573d6000803e3d6000fd5b50506008546007546040805163098bf59d60e01b81526001600160a01b038a8116600483018190529381166024830152604482018990526064820193909352905191909216935063098bf59d9250608480830192600092919082900301818387803b1580156124cc57600080fd5b505af11580156124e0573d6000803e3d6000fd5b50506007546040805163098bf59d60e01b81526001600160a01b03898116600483018190528982166024840152604483018990526064830152915191909216935063098bf59d9250608480830192600092919082900301818387803b15801561254857600080fd5b505af115801561255c573d6000803e3d6000fd5b5050600854604080516309f4173d60e11b81526001600160a01b038981166004830181905260248301529151600095509190921692506313e82e7a9160448082019260209290919082900301818787803b1580156125b957600080fd5b505af11580156125cd573d6000803e3d6000fd5b505050506040513d60208110156125e357600080fd5b50519050801561266d5760095460055460408051631e42d69b60e21b81526001600160a01b038981166004830181905260248301529283166044820152606481018590529051919092169163790b5a6c91608480830192600092919082900301818387803b15801561265457600080fd5b505af1158015612668573d6000803e3d6000fd5b505050505b60095460055460408051637aeceb1f60e11b81526001600160a01b03898116600483015292831660248201529051600093929092169163f5d9d63e91604480820192602092909190829003018186803b1580156126c957600080fd5b505afa1580156126dd573d6000803e3d6000fd5b505050506040513d60208110156126f357600080fd5b5051905080156128065760006127138461270d8488612b66565b90612bc8565b6009546005546040805163098bf59d60e01b81526001600160a01b038c8116600483018190529381166024830152604482018690526064820193909352905193945091169163098bf59d9160848082019260009290919082900301818387803b15801561277f57600080fd5b505af1158015612793573d6000803e3d6000fd5b505060055460408051632770a7eb60e21b81526001600160a01b038c81166004830152602482018790529151919092169350639dc29fac9250604480830192600092919082900301818387803b1580156127ec57600080fd5b505af1158015612800573d6000803e3d6000fd5b50505050505b604080516001600160a01b03881681526020810186905281517f911a7b02fe02893df03218aa3b1da03adf04bd887bbd67f28c3c1152243cb5b5929181900390910190a1505050505050565b60606128a7826040518060400160405280602081526020017f5361666545524332303a206c6f772d6c6576656c2063616c6c206661696c6564815250856001600160a01b0316612c079092919063ffffffff16565b8051909150156108c2578080602001905160208110156128c657600080fd5b50516108c25760405162461bcd60e51b815260040180806020018281038252602a815260200180612fcd602a913960400191505060405180910390fd5b600754604080516309f4173d60e11b81526001600160a01b03848116600483018190526024830152915160009392909216916313e82e7a9160448082019260209290919082900301818787803b15801561295c57600080fd5b505af1158015612970573d6000803e3d6000fd5b505050506040513d602081101561298657600080fd5b5051905080156129aa576004546129aa90839081906001600160a01b031684612031565b600854604080516309f4173d60e11b81526001600160a01b03858116600483018190526024830152915160009392909216916313e82e7a9160448082019260209290919082900301818787803b158015612a0357600080fd5b505af1158015612a17573d6000803e3d6000fd5b505050506040513d6020811015612a2d57600080fd5b5051905080156108c25760095460055460408051631e42d69b60e21b81526001600160a01b038781166004830181905260248301529283166044820152606481018590529051919092169163790b5a6c91608480830192600092919082900301818387803b158015612a9e57600080fd5b505af1158015612ab2573d6000803e3d6000fd5b50505050505050565b600a54604080516309f4173d60e11b81526001600160a01b03848116600483018190526024830152915160009392909216916313e82e7a9160448082019260209290919082900301818787803b158015612b1457600080fd5b505af1158015612b28573d6000803e3d6000fd5b505050506040513d6020811015612b3e57600080fd5b505190508015612b6257600454612b6290839081906001600160a01b031684612031565b5050565b600082612b7557506000612bc2565b82820282848281612b8257fe5b0414612bbf5760405162461bcd60e51b8152600401808060200182810382526021815260200180612f8c6021913960400191505060405180910390fd5b90505b92915050565b6000612bbf83836040518060400160405280601a815260200179536166654d6174683a206469766973696f6e206279207a65726f60301b815250612c20565b6060612c168484600085612cc2565b90505b9392505050565b60008183612cac5760405162461bcd60e51b81526004018080602001828103825283818151815260200191508051906020019080838360005b83811015612c71578181015183820152602001612c59565b50505050905090810190601f168015612c9e5780820380516001836020036101000a031916815260200191505b509250505060405180910390fd5b506000838581612cb857fe5b0495945050505050565b606082471015612d035760405162461bcd60e51b8152600401808060200182810382526026815260200180612f266026913960400191505060405180910390fd5b612d0c85612e1e565b612d5d576040805162461bcd60e51b815260206004820152601d60248201527f416464726573733a2063616c6c20746f206e6f6e2d636f6e7472616374000000604482015290519081900360640190fd5b60006060866001600160a01b031685876040518082805190602001908083835b60208310612d9c5780518252601f199092019160209182019101612d7d565b6001836020036101000a03801982511681845116808217855250505050505090500191505060006040518083038185875af1925050503d8060008114612dfe576040519150601f19603f3d011682016040523d82523d6000602084013e612e03565b606091505b5091509150612e13828286612e24565b979650505050505050565b3b151590565b60608315612e33575081612c19565b825115612e435782518084602001fd5b60405162461bcd60e51b8152602060048201818152845160248401528451859391928392604401919085019080838360008315612c71578181015183820152602001612c5956fe5265656e7472616e637947756172643a207265656e7472616e742063616c6c00476f7665726e61626c653a20666f7262696464656e0000000000000000000000416464726573733a20756e61626c6520746f2073656e642076616c75652c20726563697069656e74206d61792068617665207265766572746564526577617264526f757465723a20616c726561647920696e697469616c697a6564416464726573733a20696e73756666696369656e742062616c616e636520666f722063616c6c8c35ea96a2dba4a2125563c230bf2d0df1a4d28565b6873c1213b37eeee1bf0b526577617264526f757465723a20696e76616c6964205f6e6c70416d6f756e74536166654d6174683a206d756c7469706c69636174696f6e206f766572666c6f77f31c178fc58bad046a8cf4365d6f2d922b8b1aa41d6bed047ca8b85d494761ad5361666545524332303a204552433230206f7065726174696f6e20646964206e6f742073756363656564526577617264526f757465723a20696e76616c6964205f616d6f756e74000000a264697066735822122061dc04ea6729c83614d4a9993e0bca5aa3f0fda629be2eca9b90dd2f4bf2f9a664736f6c634300060c0033",
  "linkReferences": {},
  "deployedLinkReferences": {}
}